00NRCSLS222222222222276128360046760000001
010000001202204191022
02NESSOFT 22.2.14.0a                    
03NNAYOUBIFA          
04202215616
0500000107630477870986  EN 1500000000CSE
0500000207630477871006  EN 1500000000CSE
0500000307630311514281  EN 1500000000CSE
0500000407630311572014  EN 1500000000CSE
0500000507630311577842  EN 1500000000CSE
0500000607630311577880  EN 1500000000CSE
0500000707630311580194  EN 1500000000CSE
0500000807630311589685  EN 1500000000CSE
0500000907630428725327  EN 1500000000CSE
0500001007630428725341  EN 1500000000CSE
0500001107630428736811  EN 1500000000CSE
0500001207630428740214  EN 150+000040CSE
0500001307630428750022  EN 150+000053CSE
0500001407630428750046  EN 150+000042CSE
0500001507630428753603  EN 1500000000CSE
0500001607630428753634  EN 1500000000CSE
0500001707630428759858  EN 1500000000CSE
0500001807630428759193  EN 1500000000CSE
0500001907630428763909  EN 1500000000CSE
0500002007630428764197  EN 1500000000CSE
0500002107630428766320  EN 1500000000CSE
0500002207630428776794  EN 150+000001CSE
0500002307630428776831  EN 1500000000CSE
0500002407630428766306  EN 1500000000CSE
0500002507630428766283  EN 150-020880CSE
0500002607630428798116  EN 150-000001CSE
0500002707630428798130  EN 1500000000CSE
050000280763004768548420EN 1500000000CSE
050000290763004768550730EN 1500000000CSE
050000300763005448008930EN 1500000000CSE
050000310763005448062130EN 1500000000CSE
050000320763005448054630EN 1500000000CSE
050000330763005449805330EN 1500000000CSE
050000340763005449793330EN 1500000000CSE
050000350763047780502530EN 1500000000CSE
050000360763047781243630EN 1500000000CSE
050000370763031151993430EN 150+000094CSE
050000380763047784310230EN 1500000000CSE
050000390763047788607930EN 150+000791CSE
050000400763047788663530EN 150+000476CSE
050000410763047789444930EN 1500000000CSE
050000420763047789594110EN 150+000721CSE
050000430763047789602330EN 150+001699CSE
050000440763047789614610EN 150+000790CSE
050000450763031150311730EN 150+000859CSE
050000460763031150215830EN 150+000690CSE
050000470763031150191530EN 150+000664CSE
050000480763031150179330EN 150+000652CSE
050000490763031150167030EN 150+000646CSE
050000500763031150155730EN 150+000977CSE
050000510763031150069730EN 150+000386CSE
050000520763031150057430EN 150+000171CSE
050000530763031150045130EN 150+001621CSE
050000540763031150020830EN 150+001457CSE
050000550763031150081930EN 150+001618CSE
050000560763031150227130EN 150+001866CSE
050000570763031150239430EN 150+001063CSE
050000580763031150251630EN 150+002788CSE
050000590763031150102130EN 150+001434CSE
050000600763031150114430EN 150+001027CSE
050000610763031151106830EN 150+000299CSE
050000620763031150630930EN 150+000171CSE
050000630763031151094830EN 150+000158CSE
050000640763031151165530EN 1500000000CSE
050000650763031152724330EN 150+000608CSE
050000660763031150837230EN 1500000000CSE
050000670763031153496830EN 150+000132CSE
050000680763031153508830EN 150+000611CSE
050000690763031153520030EN 150+000596CSE
050000700763031153737230EN 150+000488CSE
050000710763031154096930EN 150+000468CSE
050000720763031154074730EN 150+000538CSE
050000730763031153756330EN 150+000779CSE
050000740763031154060030EN 150+001206CSE
050000750763031154132430EN 150+001319CSE
050000760763031154040230EN 1500000000CSE
050000770763031154794430EN 150+000090CSE
050000780763031154806430EN 1500000000CSE
050000790763031154161430EN 1500000000CSE
050000800763031154262830EN 1500000000CSE
050000810763031158058330EN 150+000434CSE
050000820763031158074330EN 150+000119CSE
050000830763031159129980EN 1500000000CSE
050000840763042871244080EN 1500000000CSE
050000850763042870526880EN 1500000000CSE
050000860763042872352180EN 1500000000CSE
050000870763042873209780EN 1500000000CSE
050000880763004765302530EN 1500000000CSE
050000890763004765314830EN 1500000000CSE
050000900763004765306330EN 1500000000CSE
050000910763004765304930EN 1500000000CSE
050000920763004765292930EN 1500000000CSE
050000930763004765312430EN 1500000000CSE
050000940763004765296730EN 1500000000CSE
050000950763004765284430EN 1500000000CSE
050000960763004765298130EN 1500000000CSE
050000970763004765272130EN 1500000000CSE
050000980763004765270730EN 1500000000CSE
050000990763004765308730EN 1500000000CSE
050001000763004765294330EN 1500000000CSE
050001010763004765274530EN 1500000000CSE
050001020763004765278330EN 1500000000CSE
050001030763004765290530EN 1500000000CSE
050001040763004765288230EN 1500000000CSE
050001050763004765286830EN 1500000000CSE
050001060763004765268430EN 1500000000CSE
050001070763004765368130EN 1500000000CSE
050001080763004765282030EN 1500000000CSE
050001090763004765310030EN 1500000000CSE
050001100763004768530930EN 1500000000CSE
050001110763004768524830EN 1500000000CSE
050001120763047788355930EN 150+000373CSE
050001130763004768512530EN 1500000000CSE
050001140764014033716620EN 150+001483CSE
050001150764014033726520EN 150+006102CSE
050001160764014033732620EN 1500000000CSE
050001170764014834652820EN 1500000000CSE
050001180763004767775520EN 150+001094CSE
050001190763004767609320EN 150+001542CSE
050001200763004767577520EN 1500000000CSE
050001210763004767587420EN 1500000000CSE
050001220763004767563850EN 150+000394CSE
050001230763004767567620EN 1500000000CSE
050001240763004768059520EN 1500000000CSE
050001250763004768071720EN 1500000000CSE
050001260763004768016820EN 1500000000CSE
050001270763004768409820EN 1500000000CSE
050001280763005447475020EN 150+005427CSE
050001290763005447549820EN 150+000721CSE
050001300763005447463720EN 150+004058CSE
050001310763005447623520EN 150+001271CSE
050001320763005447573320EN 150+001046CSE
050001330763005447561020EN 150+003721CSE
050001340763005448014020EN 1500000000CSE
050001350763005448040920EN 1500000000CSE
050001360763005448084350EN 1500000000CSE
050001370763005448247220EN 1500000000CSE
050001380763005448833720EN 150+002447CSE
050001390763005448715620EN 1500000000CSE
050001400763005449396620EN 150+001446CSE
050001410763005449414720EN 150+000465CSE
050001420763005449430720EN 150+001550CSE
050001430763005449463520EN 150+001174CSE
050001440763047780184320EN 150+000442CSE
050001450763047784928950EN 150+000136CSE
050001460763047788617820EN 1500000000CSE
050001470763047788645120EN 1500000000CSE
050001480763047789361920EN 1500000000CSE
050001490763031150963840EN 1500000000CSE
050001500763031150965250EN 150+000101CSE
050001510763042871043980EN 150+000586CSE
050001520763042871047780EN 150+001160CSE
050001530763031151128020EN 1500000000CSE
050001540763031150932420EN 150+000033CSE
050001550763031151116720EN 1500000000CSE
050001560763031150584520EN 1500000000CSE
050001570763031150596820EN 1500000000CSE
050001580764014033760920EN 1500000000CSE
050001590764015406155220EN 1500000000CSE
050001600764015992550720EN 150+002674CSE
050001610763003032298320EN 150+002291CSE
050001620763003033678220EN 1500000000CSE
050001630763003964097210EN 1500000000CSE
050001640763003966299850EN 1500000000CSE
050001650763003966309450EN 1500000000CSE
050001660763003968542320EN 1500000000CSE
050001670763003968680220EN 1500000000CSE
050001680763003969505720EN 1500000000CSE
050001690763003969515620EN 1500000000CSE
050001700763003969535420EN 1500000000CSE
050001710763003969553820EN 1500000000CSE
050001720763003969563720EN 1500000000CSE
050001730763005445707420EN 1500000000CSE
050001740763031155052450EN 150+000586CSE
050001750763031155028950EN 150+001163CSE
050001760763031155004350EN 1500000000CSE
050001770763031154956650EN 150+000581CSE
050001780763031154177550EN 1500000000CSE
050001790763031154296350EN 1500000000CSE
050001800763031154209350EN 1500000000CSE
050001810763031158103020EN 150+000050CSE
050001820763031154234520EN 150+000911CSE
050001830763031154246820EN 150+000105CSE
050001840763031154197320EN 150+000806CSE
050001850763031154195920EN 150+000406CSE
050001860763031154219220EN 150+000200CSE
050001870763031154980150EN 150+000492CSE
050001880763031155868150EN 150+000551CSE
050001890763031157245820EN 150+000450CSE
050001900763042871017080EN 150+000551CSE
050001910763042871856550EN 150+000391CSE
050001920763042871027950EN 150+000060CSE
050001930763042872123780EN 1500000000CSE
050001940763042876003880EN 1500000000CSE
050001950763042874814280EN 1500000000CSE
050001960764014033764720EN 1500000000CSE
050001970764015992478420EN 1500000000CSE
06+00000005880000197